:1000000028C024C323C3BBC021C320C31FC31EC336
:10001000CEC11CC31BC31AC319C318C317C316C34D
:1000200015C399C16CC112C311C310C30FC30EC352
:100030000DC30CC33F803FC9803FC93FCB0006645E
:100040003FCB3FCD803FCD3FD30006663FD33FD768
:10005000800011241FBECFEFCDBFDFE3DEBFE4E39E
:10006000F0E040E017C0B591A5913591259105913B
:1000700007FD0CC095918591EF01F92FE82F0590B0
:100080000D92A217B307D9F7FE0104C01D92A21763
:10009000B307E1F7E135F40731F713D2B5C2F894AD
:0200A000FFCF90
:1000A2008091CB3F9091CC3F8093D13F9093D23FB0
:1000B20083E064D28093CD3F9093CE3F2091CB3F9B
:1000C2003091CC3FAC01421B530B4093CF3F509336
:1000D200D03F84E1849FB001859F700D11248091EF
:1000E200B73F9091B83FA091B93FB091BA3F8536E2
:1000F2009105A105B1050CF184E690E0A0E0B0E025
:100102008093B73F9093B83FA093B93FB093BA3F63
:10011200860F971F97FD27C0811544E0940714F0BE
:100122008FEF93E0820F931F97FD20C095958795DF
:100132008093CB3F9093CC3F08958C394FEF940737
:10014200A407B4072CF78CE99FEFAFEFBFEF8093C2
:10015200B73F9093B83FA093B93FB093BA3F860F91
:10016200971F97FFD9CF80E090E0D6CF0196959563
:0C01720087958093CB3F9093CC3F08957D
:10017E001F920F920FB60F9211242F933F934F930E
:10018E005F936F937F938F939F93AF93BF93EF93F1
:10019E00FF931E9933C01A992BC01B991CC01F992F
:1001AE0021C0199B05C0E091BF3FF091C03F09955A
:1001BE008FEF83B9FF91EF91BF91AF919F918F9187
:1001CE007F916F915F914F913F912F910F900FBE45
:1001DE000F901F901895E091C33FF091C43F099581
:1001EE001F9BDFCFE091C13FF091C23F0995D9CF60
:1001FE00E091C53FF091C63F0995CFCFE091C73F43
:08020E00F091C83F0995C7CF2C
:10021600CF92DF92EF92FF920F931F93CF93DF93CC
:10022600D82F6A017B018901C091D63FC53068F598
:10023600DB01CA01B695A79597958795BC01CD01B7
:100246006D5874438F4F9F4FA7019601D9D08BE00D
:10025600C89FF0011124E058F04CD08321833283EB
:1002660043835483258336834783508701871287C8
:10027600CF5FC093D63FCF01DF91CF911F910F91F2
:10028600FF90EF90DF90CF9008954CD180E090E002
:02029600F3CFA4
:10029800E0E0F4E0148282E48083108A118A128AF2
:1002A800138A148A158A168A81E0878BE0E0F2E0C7
:1002B800108211821282138289E293E08093C73FF1
:1002C8009093C83F8AE293E08093C53F9093C63FDE
:1002D8008BE293E08093C33F9093C43F88E293E01E
:1002E8008093C13F9093C23F87E293E08093BF3FE2
:0602F8009093C03F089541
:1002FE001F920F920FB60F9211242F933F934F938D
:10030E005F936F937F938F939F93AF93BF93EF936F
:10031E00FF9382E080930B06E091BD3FF091BE3FCC
:10032E00309709F00995FF91EF91BF91AF919F9191
:10033E008F917F916F915F914F913F912F910F9080
:08034E000FBE0F901F901895DF
:100356001F920F920FB60F9211242F933F934F9334
:100366005F936F937F938F939F93AF93BF93EF9317
:10037600FF9381E080930B06E091BB3FF091BC3F79
:10038600309709F00995FF91EF91BF91AF919F9139
:100396008F917F916F915F914F913F912F910F9028
:0803A6000FBE0F901F90189587
:1003AE001F920F920FB60F9211242F933F934F93DC
:1003BE005F936F937F938F939F93AF93BF93EF93BF
:1003CE00FF93E091C93FF091CA3F309709F009952C
:1003DE0081E080930B0AFF91EF91BF91AF919F91B6
:1003EE008F917F916F915F914F913F912F910F90D0
:0803FE000FBE0F901F9018952F
:10040600A1E21A2EAA1BBB1BFD010DC0AA1FBB1F12
:10041600EE1FFF1FA217B307E407F50720F0A21B84
:10042600B30BE40BF50B661F771F881F991F1A94F1
:1004360069F760957095809590959B01AC01BD011B
:04044600CF01089545
:10044A0040E068ED80E690E0F1D041E168ED81E6B8
:10045A0090E0ECD040E068ED82E690E0E7D040E042
:10046A0068ED80E790E0E2D040E068ED88E790E050
:0C047A00DDD040E068ED8CE790E0D8C0D9
:10048600E0E0FAE010A611A612A613A614A615A679
:1004960010A211A211821282138214821582168270
:1004A60017821686118681E08287138687E594E196
:0C04B60086A397A317868BE0808308952F
:1004C2009BD0C0D08BEA92E0ABD02FE133E04AE080
:1004D20050E060E070E081E09DDE21E530E04AE03E
:1004E20050E060E070E081E095DEB6D0C2E0D8DD99
:0C04F20084E690E060D0C0930704F9CFCE
:1004FE00E0E0F6E0168A11821282138214821486CC
:10050E0011861286168215828FEF93E0848B958B5F
:0C051E00128A138A81E0808380E0089537
:10052A00C2E0C093050484EF91E041D0C093060471
:10053A0084EF91E03CD0C093050484EF91E037D07A
:0C054A00C093060488EE93E032D0EBCFA3
:10055600F89482B1881F8827881F8093D33F179904
:1005660009C09091D43F81E089278093D43F82E0EF
:080576008093070478940895B6
:10057E008093060681E08093080680910B0680FF2B
:10058E00FCCF809110069091110621E020930B066E
:02059E000895BE
:1005A00040E068ED80E191E046D0E0E1F1E01282C8
:0805B0001382789480E00895A5
:1005B80006C0E1E4F3E03197F1F7000001970097F6
:0405C800C1F70895DA
:1005CC00E0EAF0E083E3808383E0818380E00895B8
:1005DC008091D53F811103C081E08093D53F089570
:0E05EC00E0E8F6E0118281E4808380E008956B
:0E05FA0027DF4DDE7FDFF5DF41DFE3DFCCCF13
:0E060800EC0129D027D0CE0127D0CE0126D07C
:0C061600E0E0FAE08081816080830895BC
:0A0622008093C13F9093C23F0895FA
:0A062C008093C93F9093CA3F0895E0
:08063600FC0164BF408308953C
:08063E0082E080930704089597
:060646008EEE92E0F0CF01
:02064C00D9CC07
:02064E0008950D
:0206500008950B
:02065200089509
:02065400089507
:02065600089505
:02065800089503
:02065A00DDCFF2
:02065C000895FF
:02065E000895FD
:020660000895FB
:020662001DDD9C
:020664002C0365
:020666000A0088
:020668000A0086
:02066A000A0084
:02000004008278
:090000000000020000C40700002A
:00000001FF
