:1000000022C0B7C3B6C347C0B4C3B3C3B2C3B1C33E
:10001000F2C1AFC3AEC3ADC3ACC3ABC3AAC3A9C324
:10002000A8C3BDC190C1A5C3A4C3A3C3A2C3A1C398
:10003000A0C39FC33F803FC5803FC53FC70007881F
:100040003FC73FC9800011241FBECFEFCDBFDFE304
:10005000DEBFE4E3F0E040E017C0B591A591359133
:100060002591059107FD0CC095918591EF01F92F20
:10007000E82F05900D92A217B307D9F7FE0104C02F
:100080001D92A217B307E1F7E534F40731F746D222
:060090004BC3F894FFCF02
:100096001F920F920FB60F9211242F933F934F93F7
:1000A6005F936F937F938F939F93AF93BF93EF93DA
:1000B600FF931E991BC01A9920C01B9925C0199938
:1000C6002AC01F992FC08FEF83B9FF91EF91BF917F
:1000D600AF919F918F917F916F915F914F913F91DA
:1000E6002F910F900FBE0F901F901895E091C33F70
:1000F600F091C43F09951A9BE0CFE091C13FF09182
:10010600C23F09951B9BDBCFE091BF3FF091C03FFB
:100116000995199BD6CFE091BD3FF091BE3F099559
:100126001F9BD1CFE091BB3FF091BC3F0995CBCF50
:100136008F929F92AF92BF92CF92DF92EF92FF92F1
:100146000F931F93CF93DF93882EE9019090C83FBA
:1001560024E02915C0F1DB01CA01BB0F880B982FDB
:10016600DC015A016B01E82EF82E082F182F24E522
:1001760033E74BEC50E060E070E080E090E066D161
:10018600722F2BE0929EF0011124E058F04C8082F1
:1001960071833283438354837583368347835087C1
:1001A600C187D28793949092C83FCF01DF91CF91B8
:1001B6001F910F91FF90EF90DF90CF90BF90AF907F
:0E01C6009F908F90089522D280E090E0EFCFBE
:1001D400B0D2DBE02091C83F2223B9F1C0E011C0C6
:1001E400995AAB4EBF4FD09FF001D19FF00D11240F
:1001F400E058F04C85839683A783B087CF5FC217FE
:1002040020F50C2F10E0D09FF001D19FF00D1124A8
:10021400E058F04C8081882389F385819681A781F9
:10022400B085418152816381748184179507A60743
:10023400B707B4F20184F285E02D099580E097E5D3
:10024400A4E1B0E02091C83FCECF1092C73F81E037
:0E02540090E0B0D18091C73F8823C9F3BBCFA3
:1002620088249924F401E401B0E41B2ED4019D15E5
:100272008E049F04E007F10738F4FC014B01CA0128
:10028200B901AD019E011694220F331F441F551F61
:10029200661F771F881F991F881C991CEE1FFF1F5E
:1002A200CC1FDD1FAA1FBB1F8A149B04EC05FD0592
:1002B200CE05DF05A007B10748F08A189B08EC09B4
:1002C200FD09CE09DF09A00BB10B21601A94E1F6FA
:0E02D2002EF49401AF01BE01CD01000C089581
:1002E000E0E0F4E0148282EC8083108A118A128AA2
:1002F000138A148A158A168A81E0878BE0E0F2E07F
:1003000010821182128213828CEB93E08093C33FA0
:100310009093C43F8DEB93E08093C13F9093C23F95
:100320008EEB93E08093BF3F9093C03F8BEB93E0C5
:100330008093BD3F9093BE3F8AEB93E08093BB3F99
:060340009093BC3F0895FC
:100346001F920F920FB60F9211242F933F934F9344
:100356005F936F937F938F939F93AF93BF93EF9327
:10036600FF9382E080930B06E091B93FF091BA3F8C
:10037600309709F00995FF91EF91BF91AF919F9149
:100386008F917F916F915F914F913F912F910F9038
:080396000FBE0F901F90189597
:10039E001F920F920FB60F9211242F933F934F93EC
:1003AE005F936F937F938F939F93AF93BF93EF93CF
:1003BE00FF9381E080930B06E091B73FF091B83F39
:1003CE00309709F00995FF91EF91BF91AF919F91F1
:1003DE008F917F916F915F914F913F912F910F90E0
:0803EE000FBE0F901F9018953F
:1003F6001F920F920FB60F9211242F933F934F9394
:100406005F936F937F938F939F93AF93BF93EF9376
:10041600FF93E091C53FF091C63F309709F00995EB
:1004260081E080930B0AFF91EF91BF91AF919F916D
:100436008F917F916F915F914F913F912F910F9087
:080446000FBE0F901F901895E6
:10044E00689401C0E894F92FF12B0AF015C1A0E0D1
:10045E00B0E0E3E3F2E07EC0092E05941AF4F9D081
:10046E00112392F4F0E80F26FFEFE094F09400953C
:10047E001095B094C094D094A194BF0ACF0ADF0A0D
:10048E00EF0AFF0A0F0B1F0BE5DE07FCE2D0CDB71C
:06049E00DEB7ECE078C0BF
:1004A40040E068ED80E690E054D141E168ED81E6FA
:1004B40090E04FD140E068ED82E690E04AD140E020
:1004C40068ED80E790E045D140E068ED88E790E092
:0C04D40040D140E068ED8CE790E03BC1B7
:1004E000E0E0FAE010A611A612A613A614A615A61F
:1004F00010A211A211821282138214821582168216
:1005000017821686118681E08287138687E594E13B
:0C05100086A397A317868BE080830895D4
:10051C00F7D026D12DE833E04AE050E060E070E0FF
:10052C0081E003DE2FEA33E041E050E060E070E070
:10053C0081E0FBDD29E533E041E050E060E070E074
:0A054C0081E0F3DDE4D040DEFDCFD6
:100556002F923F924F925F926F927F928F929F92CD
:10056600AF92BF92CF92DF92EF92FF920F931F93BB
:10057600CF93DF93CDB7DEB7CA1BDB0BCDBFDEBF94
:020586000994D6
:100588002A88398848885F846E847D848C849B841B
:10059800AA84B984C884DF80EE80FD800C811B8129
:1005A800AA81B981CE0FD11DCDBFDEBFED0108955F
:1005B8008032910588F09C0143E24A95F1F700C02A
:1005C8002052310920323105B8F78F7199270097E9
:0E05D80029F000C000C001970097D9F70895E0
:1005E600E0E0F6E0168A11821282138214821486E3
:1005F60011861286168215828FEF93E0848B958B77
:0C060600128A138A81E0808380E008954E
:10061200C2E0C093050484EF91E056D0C093060473
:1006220084EF91E051D0C093050484EF91E04CD067
:0C063200C093060488EE93E047D0EBCFA5
:10063E008093060681E08093080680910B0680FF6A
:10064E00FCCF809110069091110621E020930B06AD
:02065E000895FD
:100660006095709580959095309540955095219521
:100670003F4F4F4F5F4F6F4F7F4F8F4F9F4F0895AB
:10068000689401C0E8948F929F92CF93DF93E9DD45
:0A069000DF91CF919F908F900895A5
:10069A0040E068ED80E191E059D0E0E1F1E01282BA
:0806AA001382789480E00895AA
:1006B20047D08C3B910524F080E88093050408958F
:0806C20080E88093060408950E
:1006CA0006C0E1E4F3E03197F1F7000001970097E3
:0406DA00C1F70895C7
:1006DE00E0EAF0E083E3808383E0818380E00895A5
:1006EE008091C73F811103C081E08093C73F089579
:0E06FE00E0E8F6E0118281E4808380E0089558
:0E070C00CBDEE8DD6ADFF5DFE5DEE3DFC0CF40
:0E071A0083E090DF95958795959587951FC094
:0E072800EC012BD029D0CE0129D0CE0128D053
:0C073600E0E0FAE080818160808308959B
:0A07420080911006909111060895B1
:0A074C008093C53F9093C63F0895C7
:08075600FC0164BF408308951B
:08075E0082E080930704089576
:0607660080938106089556
:06076C0087E793E0EDCFEA
:0207720046CC73
:020774000895E6
:020776000895E4
:020778000895E2
:02077A000895E0
:02077C000895DE
:02077E000895DC
:020780000895DA
:020782000895D8
:020784000895D6
:0207860085DC10
:02078800BF03AD
:02000004008278
:090000000000020000C40700002A
:00000001FF
