:1000000022C015C314C347C012C311C310C30FC30A
:1000100095C10DC30CC30BC30AC309C308C307C3EF
:1000200006C360C133C103C302C301C300C3FFC21F
:10003000FEC2FDC23F803FC9803FC93FCB0006469C
:100040003FCB3FCF800011241FBECFEFCDBFDFE3FA
:10005000DEBFE4E3F0E040E017C0B591A591359133
:100060002591059107FD0CC095918591EF01F92F20
:10007000E82F05900D92A217B307D9F7FE0104C02F
:100080001D92A217B307E1F7E534F40731F7FED16B
:06009000A9C2F894FFCFA5
:100096001F920F920FB60F9211242F933F934F93F7
:1000A6005F936F937F938F939F93AF93BF93EF93DA
:1000B600FF931E9933C01A992BC01B991CC01F9918
:1000C60021C0199B05C0E091BF3FF091C03F099543
:1000D6008FEF83B9FF91EF91BF91AF919F918F9170
:1000E6007F916F915F914F913F912F910F900FBE2E
:1000F6000F901F901895E091C33FF091C43F09956A
:100106001F9BDFCFE091C13FF091C23F0995D9CF48
:10011600E091C53FF091C63F0995CFCFE091C73F2B
:08012600F091C83F0995C7CF15
:10012E00CF92DF92EF92FF920F931F93CF93DF93B5
:10013E00D82F6A017B018901C091CE3FC53068F589
:10014E00DB01CA01B695A79597958795BC01CD01A0
:10015E006D5874438F4F9F4FA701960114D18BE0BA
:10016E00C89FF0011124E058F04CD08321833283D4
:10017E0043835483258336834783508701871287B1
:10018E00CF5FC093CE3FCF01DF91CF911F910F91E3
:10019E00FF90EF90DF90CF900895A2D180E090E095
:0201AE00F3CF8D
:1001B0008F929F92AF92BF92CF92DF92EF92FF9277
:1001C0000F9383E0BED17C012CD29701A7E8B5E064
:1001D000D5D16B017C01FF0CCC08DC2C76019B0196
:1001E000AC016C2D7C2D8C2D9C2D08E031D149016A
:1001F0005A018AE297E1A0E0B0E088199909AA09BA
:10020000BB098093B73F9093B83FA093B93FB09399
:10021000BA3F0F91FF90EF90DF90CF90BF90AF90DB
:060220009F908F900895ED
:10022600E0E0F4E0148282E48083108A118A128A64
:10023600138A148A158A168A81E0878BE0E0F2E039
:1002460010821182128213828AE193E08093C73F63
:100256009093C83F8BE193E08093C53F9093C63F50
:100266008CE193E08093C33F9093C43F89E193E090
:100276008093C13F9093C23F88E193E08093BF3F54
:060286009093C03F0895B3
:10028C001F920F920FB60F9211242F933F934F93FF
:10029C005F936F937F938F939F93AF93BF93EF93E2
:1002AC00FF9382E080930B06E091BD3FF091BE3F3F
:1002BC00309709F00995FF91EF91BF91AF919F9104
:1002CC008F917F916F915F914F913F912F910F90F3
:0802DC000FBE0F901F90189552
:1002E4001F920F920FB60F9211242F933F934F93A7
:1002F4005F936F937F938F939F93AF93BF93EF938A
:10030400FF9381E080930B06E091BB3FF091BC3FEB
:10031400309709F00995FF91EF91BF91AF919F91AB
:100324008F917F916F915F914F913F912F910F909A
:080334000FBE0F901F901895F9
:10033C001F920F920FB60F9211242F933F934F934E
:10034C005F936F937F938F939F93AF93BF93EF9331
:10035C00FF93E091C93FF091CA3F309709F009959E
:10036C0081E080930B0AFF91EF91BF91AF919F9128
:10037C008F917F916F915F914F913F912F910F9042
:08038C000FBE0F901F901895A1
:10039400A1E21A2EAA1BBB1BFD010DC0AA1FBB1F85
:1003A400EE1FFF1FA217B307E407F50720F0A21BF7
:1003B400B30BE40BF50B661F771F881F991F1A9464
:1003C40069F760957095809590959B01AC01BD018E
:0403D400CF010895B8
:1003D80040E068ED80E690E018D141E168ED81E603
:1003E80090E013D140E068ED82E690E00ED140E065
:1003F80068ED80E790E009D140E068ED88E790E09B
:0C04080004D140E068ED8CE790E0FFC0FC
:10041400E0E0FAE010A611A612A613A614A615A6EB
:1004240010A211A2118212821382148215821682E2
:1004340017821686118681E08287138687E594E108
:0C04440086A397A317868BE080830895A1
:1004500097FB10F8169400080F93083098F0085096
:10046000232F342F452F562F672F782F892F902D2C
:10047000F4CF059497958795779567955795479508
:0C048000379527950A95AAF70F9108956B
:10048C00A4D0CCD08DE892E0B4D02DE033E04AE09B
:10049C0050E060E070E081E044DE28ED30E04AE0BE
:1004AC0050E060E070E081E03CDEC2D07BDE84E6B0
:0604BC0090E06AD0FBCFC6
:1004C200E0E0F6E0168A1182128213821482148608
:1004D20011861286168215828FEF93E0848B958B9C
:0C04E200128A138A81E0808380E0089574
:1004EE00C2E0C093050484EF91E04DD0C0930604A2
:1004FE0084EF91E048D0C093050484EF91E043D09F
:0C050E00C093060488EE93E03ED0EBCFD3
:10051A00F89482B1881F8827881F8093CB3F179948
:10052A0009C09091CC3F81E089278093CC3F82E03B
:08053A008093070478940895F2
:100542008093060681E08093080680910B0680FF67
:10055200FCCF809110069091110621E020930B06AA
:020562000895FA
:1005640040E068ED80E191E052D0E0E1F1E01282F8
:080574001382789480E00895E1
:10057C00A29FB001B39FC001A39F01D0B29F700D89
:08058C00811D1124911D089549
:1005940006C0E1E4F3E03197F1F70000019700971A
:0405A400C1F70895FE
:1005A800E0EAF0E083E3808383E0818380E00895DC
:1005B8008091CD3F811103C081E08093CD3F0895A4
:0E05C800E0E8F6E0118281E4808380E008958F
:0E05D60000DF26DE73DFF5DF1ADFE3DFC0CFC4
:0E05E400EC012CD02AD0CE012AD0CE0129D095
:0C05F200E0E0FAE08081816080830895E1
:0A05FE008093C13F9093C23F08951F
:0A0608008093C93F9093CA3F089504
:08061200FC0164BF4083089560
:08061A0082E0809307040895BB
:060622008093810608959B
:060628008CED92E0EDCF25
:02062E00E8CC16
:0206300008952B
:02063200089529
:02063400089527
:02063600089525
:02063800089523
:02063A00089521
:02063C00DACF13
:02063E0008951D
:0206400008951B
:02064200089519
:0206440026DDB1
:020646001D0392
:02000004008278
:090000000000020000C40700002A
:00000001FF
